:04000000FEEFFFF020
:10250000004D6963726F2053656D616E61203133D8
:10251000005072656E6469646F0041706167616448
:032520006F000049
:1025240093EC13F0B3EC13F0000E046E010ED1EC37
:1025340012F0010E046E71EC13F0CF0E3AEC14F0AD
:1025440069EC14F0086E310E0818D8A4ACEF12F040
:10255400AEEF12F0BAEF12F0C396000E046E020E44
:10256400D1EC12F0110E046E71EC13F0A2EF12F024
:10257400320E0818D8A4C1EF12F0C3EF12F0A2EF84
:1025840012F0C386000E046E020ED1EC12F01A0E85
:10259400046E71EC13F0A2EF12F0FEEFFFF0056E83
:1025A4000504D8A4D8EF12F0DAEF12F0E0EF12F03D
:1025B4000450800FEEEC13F00DEF13F0020E05182B
:1025C400D8A4E7EF12F0E9EF12F0EFEF12F00450A5
:1025D400C00FEEEC13F00DEF13F0030E0518D8A4A2
:1025E400F6EF12F0F8EF12F0FEEF12F00450940F31
:1025F400EEEC13F00DEF13F0040E0518D8A405EF5C
:1026040013F007EF13F00DEF13F00450D40FEEECBA
:1026140013F00DEF13F01200F80EC96EC190C182D1
:10262400C184A00E00D0E82EFDD7D1C401F5C19419
:10263400A00E00D0E82EFDD7C184A00E00D0E82E55
:10264400FDD7C1940150800B016E3DEF13F0C1849E
:10265400A00E00D0E82EFDD7D1C401F5C194A00E80
:1026640000D0E82EFDD7C184A00E00D0E82EFDD7FF
:10267400C19424EF13F0800E0118D8B444EF13F082
:1026840046EF13F029EF13F01200C190C192300EFF
:1026940050EC14F0150E046EC60EE82EFED7042E70
:1026A400FCD700D0300E50EC14F0A00E00D0E82E71
:1026B400FDD7300E50EC14F0200E50EC14F0010E47
:1026C400EEEC13F0280EEEEC13F00F0EEEEC13F01C
:1026D400060EEEEC13F0010EEEEC13F0120004C53E
:1026E40001F5D2EC13F00150066E000E076E89EF6F
:1026F40013F004500724056E05C5F6F4250EF76E95
:10270400000EF86E0800F55008EC14F0072A065085
:10271400075CD8A090EF13F092EF13F07BEF13F067
:102724001200600E0001AD6F060EB16F400EB36F64
:10273400000EC86EFE0E0401106FC768000E086F0D
:102744001F0E096F080E296FCB902891CB82289316
:10275400000EC96E000E186FCB962897C386C090E2
:102764001200000EC96E000E0401186F9C0E056E57
:10277400D70EE82EFED7052EFCD7000047EC13F049
:102784009C0E056ED70EE82EFED7052EFCD7000052
:1027940062EC14F05EEC14F0010E22EC14F0120062
:1027A40001C503F5D7EF13F0012A01C5F6F4250E90
:1027B400F76E000EF86E0800F5500009D8A4E5EF96
:1027C40013F0E7EF13F0D6EF13F00350015C016E42
:1027D400026A01BE02061200026EC1900EEC13F0F2
:1027E400000EC96EA00E00D0E82EFDD7C192C19490
:1027F400C1900250F00B036E035050EC14F00238F9
:10280400F00B036E035050EC14F01200026EC18002
:102814000EEC13F0000EC96EA00E00D0E82EFDD70A
:10282400C192C194C1800250F00B036E035050EC6E
:1028340014F00238F00B036E035050EC14F0120045
:10284400046E0450D8A429EF14F02BEF14F02EEFEB
:1028540014F00E0EEEEC13F00404D8A434EF14F0CC
:1028640036EF14F039EF14F00C0EEEEC13F0120006
:10287400016ECB9004012891CB822893000E0201B3
:10288400AF6F01C5AEF2300EAB6F800EAC6F000EB1
:10289400AD6F200E296F290E726F1200016E0F0E9C
:1028A400C116F00E01160150C112C184A00E00D051
:1028B400E82EFDD7C1941200020EEEEC13F01200C4
:1028C400010EEEEC13F01200000192EF12F002017F
:0428D400A1511200FC
:020000040001F9
:04FFFC0066EF14F0A8
:020000040030CA
:08000000FCFF3DDF9FFFFFFF45
:01000900FFF7
:00000001FF
