:0400000081EF00F09C
:10000800261126112611261140002611400026111E
:100018000B1126112611261126112611261126113B
:1000280026114000400040002611261126112611F5
:10003800261126112611261126112611CF0F261159
:1000480026112611261126114000400026112611DE
:1000580026112611261140002611261126112611D7
:1000680013112611261126112611261126112611E3
:1000780026112611261126114000261126112611B7
:1000880026112611261126112611261126112611B0
:100098002611261126112611400026114000400085
:1000A8002611261126112611261126112611261190
:1000B8002611261126112611261126112611261180
:1000C8002611261126112611261126112611261170
:1000D8002611261126112611261126112611261160
:1000E8004000261126112611400040004000400023
:0E00F8002611261126112611FF0085EF20F09B
:10250000006D6F6465313A20006D6F6465323A206A
:10251000006D6F6465333A2000616C61726D3A2022
:102520000043616E63656C3A0052656C6F6A3A00F5
:0125300000AA
:1025320013EC20F065EC21F0D080090E4C6E1E0EDB
:102542004B6EE40EE82EFED74B2EFCD74C2EFAD75C
:1025520000D0D090000E046E010E60EC1FF0290E28
:10256200046E43EC21F0CF0EECEC21F002EC22F0F1
:1025720001C558F502C559F50B0E046E010E60EC4B
:102582001FF058C50DF559C50EF5040E0F6E5FEC20
:102592001DF0000E046E020E60EC1FF05F50EBECBB
:1025A20020F05B50300FBAEC21F05A50300FBAECE9
:1025B20021F03A0EBAEC21F05E50EBEC20F05B50C9
:1025C200300FBAEC21F05A50300FBAEC21F03A0E2B
:1025D200BAEC21F005016C51EBEC20F05B50300FAE
:1025E200BAEC21F05A50300FBAEC21F002EC22F092
:1025F20001C558F502C559F559EC22F0516E070E86
:10260200046E010E60EC1FF05150BAEC21F005018E
:102612006F515118D8B410EF13F012EF13F07FEF8F
:1026220013F051C56FF55AEF13F0170E5F18D8A4C7
:102632001DEF13F01FEF13F023EF13F0000E5F6E88
:102642007FEF13F05F2A7FEF13F03B0E5E18D8A4E2
:102652002DEF13F02FEF13F033EF13F0000E5E6E39
:102662007FEF13F05E2A7FEF13F0010E606F5F5071
:10267200D8A43EEF13F040EF13F044EF13F0170E1F
:102682005F6E7FEF13F05F067FEF13F05E50D8A40A
:102692004DEF13F04FEF13F053EF13F03B0E5E6E5E
:1026A2007FEF13F05E067FEF13F0000E606F7FEF97
:1026B20013F051504B6E4C6A4C50000AD8B464EF80
:1026C20013F07FEF13F04B50310AD8B416EF13F02A
:1026D200030AD8B426EF13F0010AD8B436EF13F088
:1026E200070AD8B438EF13F0010AD8B447EF13F051
:1026F200030AD8B456EF13F07FEF13F06D516E1149
:10270200D8B486EF13F088EF13F08BEF13F06D0758
:10271200D8A06E075D505F18D8A492EF13F094EF23
:1027220013F022EF14F05C505E18D8A49BEF13F064
:102732009DEF13F022EF14F07251D8A4A3EF13F01F
:10274200A5EF13F022EF14F0010E726F010E606F0D
:10275200000E4E6E960E4E64B1EF13F0B3EF13F00F
:10276200B5EF13F022EF14F0D080150E4C6E4B0E25
:102772004B6EBE0EE82EFED74B2EFCD74C2EFAD750
:1027820000D0D090000E536E000E526E535009E1ED
:10279200FA0E525CD8A0D0EF13F0D2EF13F0D4EFC0
:1027A20013F0F2EF13F0C280060E4B6E300EE82EDD
:1027B200FED74B2EFCD700D0C290CB0E4B6E980E9C
:1027C200E82EFED74B2EFCD7524A532A535009E12A
:1027D200FA0E525CD8A0F0EF13F0F2EF13F0D4EF40
:1027E20013F0000E536E000E526E535009E1FA0EB2
:1027F200525CD8A0FFEF13F001EF14F003EF14F0D6
:1028020022EF14F0C2801A0E4B6EF80EE82EFED79D
:102812004B2EFCD700D0C290B60E4B6ED00EE82ED7
:10282200FED74B2EFCD700D0524A532A535009E10F
:10283200FA0E525CD8A020EF14F022EF14F003EF4E
:1028420014F0050168515F18D8A42AEF14F02CEF98
:1028520014F0BAEF14F067515E18D8A433EF14F0F5
:1028620035EF14F0BAEF14F07151D8A43BEF14F025
:102872003DEF14F0BAEF14F0010E716F010E606FAC
:10288200000E4F6E960E4F6449EF14F04BEF14F0AA
:102892004DEF14F0BAEF14F0D080150E4C6E4B0EC3
:1028A2004B6EBE0EE82EFED74B2EFCD74C2EFAD71F
:1028B20000D0D090000E556E000E546EF40E545C93
:1028C200010E5558D8A068EF14F06AEF14F06CEFBF
:1028D20014F08AEF14F0C280060E4B6E300EE82E12
:1028E200FED74B2EFCD700D0C290CB0E4B6E980E6B
:1028F200E82EFED74B2EFCD7544A552AF40E545CD0
:10290200010E5558D8A088EF14F08AEF14F06CEF3E
:1029120014F0000E556E000E546EF40E545C010E4F
:102922005558D8A097EF14F099EF14F09BEF14F0DC
:10293200BAEF14F0C2801A0E4B6EF80EE82EFED7D4
:102942004B2EFCD700D0C290B60E4B6ED00EE82EA6
:10295200FED74B2EFCD700D0544A552AF40E545CB5
:10296200010E5558D8A0B8EF14F0BAEF14F09BEF4F
:1029720014F0050164515F18D8A4C2EF14F0C4EF3B
:1029820014F052EF15F063515E18D8A4CBEF14F097
:10299200CDEF14F052EF15F07051D8A4D3EF14F02C
:1029A200D5EF14F052EF15F0010E706F010E606F4B
:1029B200000E506E960E5064E1EF14F0E3EF14F047
:1029C200E5EF14F052EF15F0D080150E4C6E4B0E61
:1029D2004B6EBE0EE82EFED74B2EFCD74C2EFAD7EE
:1029E20000D0D090000E576E000E566EEE0E565C62
:1029F200020E5758D8A000EF15F002EF15F004EFC1
:102A020015F022EF15F0C280060E4B6E300EE82E46
:102A1200FED74B2EFCD700D0C290CB0E4B6E980E39
:102A2200E82EFED74B2EFCD7564A572AEE0E565C9E
:102A3200020E5758D8A020EF15F022EF15F004EF40
:102A420015F0000E576E000E566EEE0E565C020E1C
:102A52005758D8A02FEF15F031EF15F033EF15F0DE
:102A620052EF15F0C2801A0E4B6EF80EE82EFED70A
:102A72004B2EFCD700D0C290B60E4B6ED00EE82E75
:102A8200FED74B2EFCD700D0564A572AEE0E565C84
:102A9200020E5758D8A050EF15F052EF15F033EF51
:102AA20015F0CFB857EF15F059EF15F068EF15F0A4
:102AB20005017351D8A460EF15F062EF15F068EFCD
:102AC20015F0010E606F010E736F96EF18F0CFA82C
:102AD2006DEF15F06FEF15F096EF18F0000E05018F
:102AE200736F96EF18F0CFB879EF15F07BEF15F012
:102AF20088EF15F07351D8A481EF15F083EF15F02C
:102B020088EF15F0602B010E736F91EF15F0CFA8CF
:102B12008DEF15F08FEF15F091EF15F0000E736F3A
:102B220002EC22F001C558F502C559F559EC22F024
:102B32004D6E360E4D18D8A4A1EF15F0A3EF15F087
:102B420058EF18F0000E0501606F58EF18F0200ED4
:102B5200585C030E5958D8B0B1EF15F0B3EF15F029
:102B6200C0EF15F0010E746F090E046E020E60ECD8
:102B72001FF0210E046E43EC21F096EF18F0400E88
:102B8200585C060E5958D8B0C9EF15F0CBEF15F0C6
:102B9200D8EF15F0020E746F090E046E020E60EC8F
:102BA2001FF0190E046E43EC21F096EF18F0600E40
:102BB200585C090E5958D8B0E1EF15F0E3EF15F063
:102BC200F0EF15F0030E746F090E046E020E60EC46
:102BD2001FF0010E046E43EC21F096EF18F0800E08
:102BE200585C0C0E5958D8B0F9EF15F0FBEF15F000
:102BF20008EF16F0040E746F090E046E020E60ECFC
:102C02001FF0090E046E43EC21F096EF18F0050E4A
:102C1200746F090E046E020E60EC1FF0110E046E4A
:102C220043EC21F096EF18F0000E606F96EF18F06B
:102C3200050E606F96EF18F0030E606F96EF18F0B6
:102C4200070E606F96EF18F00A0E606F96EF18F09D
:102C520074514B6E4C6A4C50000AD8B433EF16F0E4
:102C620096EF18F04B50010AD8B415EF16F0030A8C
:102C7200D8B419EF16F0010AD8B41DEF16F0070AFE
:102C8200D8B421EF16F0010AD8B425EF16F096EF6A
:102C920018F0000E6C6F000E2C6E000E2D6E000EE2
:102CA2002E6E430E2F6E5C0E136E8F0E146E420E3E
:102CB200156E3F0E166E58C501F559C502F5036A29
:102CC200046A000E85EC1CF001C50FF502C510F573
:102CD20003C511F504C512F5A3EC18F00FC528F5CC
:102CE20010C529F511C52AF512C52BF5B8EC1AF055
:102CF20028C541F529C542F52AC543F52BC544F53A
:102D020023EC1EF041505D6E000E046E020E60EC6C
:102D12001FF05D50EBEC20F05B50300FBAEC21F06D
:102D22005A50300FBAEC21F096EF18F0000E6C6F8B
:102D3200000E2C6E000E2D6E800E2E6E430E2F6E28
:102D4200AE0E136E470E146E810E156E400E166E89
:102D520058C501F559C502F5036A046A000E85ECEF
:102D62001CF001C50FF502C510F503C511F504C528
:102D720012F5A3EC18F00FC528F510C529F511C5F9
:102D82002AF512C52BF5B8EC1AF028C541F529C56C
:102D920042F52AC543F52BC544F523EC1EF04150FC
:102DA2005C6E030E046E020E60EC1FF05C50EBECE6
:102DB20020F05B50300FBAEC21F05A50300FBAECD1
:102DC20021F096EF18F0000E046E020E60EC1FF078
:102DD2005D50EBEC20F05B50300FBAEC21F05A5012
:102DE200300FBAEC21F03A0EBAEC21F05C50EBEC69
:102DF20020F05B50300FBAEC21F05A50300FBAEC91
:102E020021F096EF18F0000E606F000E736F000E47
:102E1200726F96EF18F0000E6C6F000E2C6E000EA3
:102E22002D6E000E2E6E430E2F6E5C0E136E8F0EE5
:102E3200146E420E156E3F0E166E58C501F559C539
:102E420002F5036A046A000E85EC1CF001C50FF559
:102E520002C510F503C511F504C512F5A3EC18F06F
:102E62000FC528F510C529F511C52AF512C52BF590
:102E7200B8EC1AF028C541F529C542F52AC543F533
:102E82002BC544F523EC1EF041500501686F000E7E
:102E9200046E020E60EC1FF005016851EBEC20F0AD
:102EA2005B50300FBAEC21F05A50300FBAEC21F0DF
:102EB20096EF18F0000E6C6F000E2C6E000E2D6E49
:102EC200800E2E6E430E2F6EAE0E136E470E146ED4
:102ED200810E156E400E166E58C501F559C502F5E4
:102EE200036A046A000E85EC1CF001C50FF502C5E9
:102EF20010F503C511F504C512F5A3EC18F00FC5C2
:102F020028F510C529F511C52AF512C52BF5B8EC1F
:102F12001AF028C541F529C542F52AC543F52BC546
:102F220044F523EC1EF041500501676F030E046E59
:102F3200020E60EC1FF005016751EBEC20F05B50D4
:102F4200300FBAEC21F05A50300FBAEC21F096EF64
:102F520018F0000E606F000E716F000E736F96EF27
:102F620018F0000E6C6F000E2C6E000E2D6E000E0F
:102F72002E6E430E2F6E5C0E136E8F0E146E420E6B
:102F8200156E3F0E166E58C501F559C502F5036A56
:102F9200046A000E85EC1CF001C50FF502C510F5A0
:102FA20003C511F504C512F5A3EC18F00FC528F5F9
:102FB20010C529F511C52AF512C52BF5B8EC1AF082
:102FC20028C541F529C542F52AC543F52BC544F567
:102FD20023EC1EF041500501646F000E046E020ED8
:102FE20060EC1FF005016451EBEC20F05B50300FF8
:102FF200BAEC21F05A50300FBAEC21F096EF18F0EB
:10300200000E6C6F000E2C6E000E2D6E800E2E6E5A
:10301200430E2F6EAE0E136E470E146E810E156E9A
:10302200400E166E58C501F559C502F5036A046AC9
:10303200000E85EC1CF001C50FF502C510F503C5A5
:1030420011F504C512F5A3EC18F00FC528F510C54B
:1030520029F511C52AF512C52BF5B8EC1AF028C5C9
:1030620041F529C542F52AC543F52BC544F523ECA4
:103072001EF041500501636F030E046E020E60ECF8
:103082001FF005016351EBEC20F05B50300FBAECFE
:1030920021F05A50300FBAEC21F096EF18F0000EE2
:1030A200606F000E706F000E736F96EF18F00501DF
:1030B20060514B6E4C6A4C50000AD8B463EF18F062
:1030C20096EF18F04B50010AD8B4A8EF15F0030A96
:1030D200D8B429EF16F0010AD8B44AEF16F0070A5D
:1030E200D8B497EF16F0010AD8B4E4EF16F0030A49
:1030F200D8B404EF17F0010AD8B40CEF17F00F0A96
:10310200D8B45BEF17F0010AD8B4AAEF17F0030A9C
:10311200D8B4B2EF17F0010AD8B401EF18F0070AD9
:10312200D8B450EF18F096EF18F005016051D8A40A
:103132009DEF18F09FEF18F074EF15F0B7EF12F053
:1031420081EF00F01250800B1B6E12501224216E80
:1031520011AEAEEF18F0B0EF18F0B1EF18F0218019
:103162002150D8B4B7EF18F0B9EF18F0CCEF18F03F
:103172002128D8A4BFEF18F0C1EF18F0C9EF18F05A
:10318200000E0F6E000E106E000E116E000E126E0B
:10319200118ED4EF18F0000E0F6E000E106E000E9E
:1031A200116E000E126E1650800B1B1A165016244A
:1031B200206E15AEDFEF18F0E1EF18F0E2EF18F035
:1031C20020802050D8B4E8EF18F0EAEF18F0FDEFB5
:1031D20018F02028D8A4F0EF18F0F2EF18F0FAEF68
:1031E20018F0000E136E000E146E000E156E000E17
:1031F200166E158E05EF19F0000E136E000E146E8A
:10320200000E156E000E166E2050D8B40BEF19F09A
:103212000DEF19F015EF19F02150D8A413EF19F0A2
:1032220015EF19F01FEF19F0000E0F6E000E106E61
:10323200000E116E000E126EB7EF1AF015500F024B
:10324200F3C426F5F4C427F526501C6E1D6A1E6AC7
:103252001F6A2750226E236A246A256A14501002BC
:10326200F3C426F5F4C427F526501C26000E1D22B1
:103272001E221F2227502226000E2322242225222C
:1032820013501102F3C426F5F4C427F526501C2668
:10329200000E1D221E221F2227502226000E23224C
:1032A200242225221EC51FF51DC51EF51CC51DF5B0
:1032B2001C6A13501002F3C426F5F4C427F52650F5
:1032C2001C2627501D22000E1E22000E1F22145003
:1032D2000F02F3C426F5F4C427F526501C26275006
:1032E2001D22000E1E22000E1F221EC51FF51DC527
:1032F2001EF51CC51DF51C6A13500F02F3C426F5FA
:10330200F4C427F526501C2627501D22000E1E222B
:10331200000E1F2215501002F3C426F5F4C427F53F
:103322002650222627502322000E2422000E252278
:1033320014501102F3C426F5F4C427F526502226B0
:1033420027502322000E2422000E2522155011029E
:10335200F3C426F5F4C427F52650176E2750186ECD
:10336200196A1A6A19C51AF518C519F517C518F593
:10337200176A1750222618502322195024221A5055
:1033820025221CC517F51DC518F51EC519F51FC543
:103392001AF5190ED2EF19F0D8901A3219321832E2
:1033A2001732E82ECDEF19F017502226185023229B
:1033B200195024221A5025221EC51FF51DC51EF5BF
:1033C2001CC51DF51C6A205021C517F5186A172661
:1033D200000E1822820E1724266EFF0E1820276E6A
:1033E20008EF1AF0D89022362336243625361FAE3F
:1033F200FDEF19F0FFEF19F000EF1AF02280D890DC
:103402001C361D361E361F362606D8A0270624AEC9
:103412000DEF1AF00FEF1AF0F3EF19F0000E206E15
:103422001FAE16EF1AF018EF1AF03CEF1AF0FF0E6B
:103432001C14176EFF0E1D14186EFF0E1E14196E4B
:103442007F0E1F141A6E1750181019101A10D8B4C4
:103452002DEF1AF02FEF1AF033EF1AF0010E206E53
:103462003CEF1AF022A038EF1AF03AEF1AF03CEFD4
:103472001AF02FEF1AF02050D8B442EF1AF044EFAE
:103482001AF068EF1AF0010E2226000E23222422DF
:10349200252225A04FEF1AF051EF1AF068EF1AF02B
:1034A20022C517F523C518F524C519F525C51AF542
:1034B2001A341A3219321832173217C522F518C5C2
:1034C20023F519C524F51AC525F5264A272A27BE4C
:1034D20073EF1AF0275008E12628D8A073EF1AF0EC
:1034E20075EF1AF07FEF1AF0000E226E000E236EB7
:1034F200800E246E7F0E256EADEF1AF027BE8CEF84
:103502001AF0275006E12604D8B08AEF1AF08CEFA1
:103512001AF098EF1AF0000E226E000E236E000EC3
:10352200246E000E256E000E1B6EADEF1AF026C53E
:1035320021F5FF0E2216FF0E23167F0E2416000E13
:10354200251621A0A7EF1AF0A9EF1AF0AAEF1AF098
:10355200248ED8902130256E1B50251222C50FF5DE
:1035620023C510F524C511F525C512F512002B50FF
:10357200800B386E2B502B243F6E2AAEC3EF1AF00D
:10358200C5EF1AF0C6EF1AF03F803F50D8B4CCEF27
:103592001AF0CEEF1AF0E3EF1AF03F28D8A4D4EFD6
:1035A2001AF0D6EF1AF0DEEF1AF0000E286E000EB7
:1035B200296E000E2A6E000E2B6E2A8E000E2B6EC6
:1035C200EBEF1AF0000E286E000E296E000E2A6E26
:1035D200000E2B6E2F50800B381A2F502F24406E66
:1035E2002EAEF6EF1AF0F8EF1AF0F9EF1AF040806B
:1035F2004050D8B4FFEF1AF001EF1BF016EF1BF0AA
:103602004028D8A407EF1BF009EF1BF011EF1BF0C5
:10361200000E2C6E000E2D6E000E2E6E000E2F6E02
:103622002E8E000E2F6E1EEF1BF0000E2C6E000E63
:103632002D6E000E2E6E000E2F6E2C502D102E10A1
:103642002F10D8A427EF1BF029EF1BF041EF1BF03E
:10365200000E286E000E296E000E2A6E000E2B6ED2
:10366200800E2A127F0E2B1238502B1228C528F5F5
:1036720029C529F52AC52AF52BC52BF584EF1CF09F
:103682003F50D8A447EF1BF049EF1BF053EF1BF05C
:10369200000E286E000E296E000E2A6E000E2B6E92
:1036A20084EF1CF040503FC530F5316A305E000EA9
:1036B200315A7F0E3024396E000E31203A6E28C501
:1036C20034F529C535F52AC536F52BC537F5000E73
:1036D200286E000E296E000E2A6E000E2B6E000E52
:1036E2003B6E000E3C6E000E3D6E000E3E6E000EF6
:1036F200406EB4EF1BF04050D8B482EF1BF084EF61
:103702001BF09BEF1BF0D890343635363636373601
:10371200D890283629362A362B363EAE93EF1BF048
:1037220095EF1BF096EF1BF02880D8903B363C3685
:103732003D363E362C50345C2D5035582E5036587E
:103742002F503758D8A0A8EF1BF0AAEF1BF0B3EF09
:103752001BF03E8C2C50345E2D50355A2E50365A6A
:103762002F50375A402A190E4064BAEF1BF0BCEFB3
:103772001BF07CEF1BF03450351036103710D8B4E4
:10378200C5EF1BF0C7EF1BF0DFEF1BF03B80DFEF55
:103792001BF0D890283629362A362B363EAED4EF87
:1037A2001BF0D6EF1BF0D7EF1BF02880D8903B36EA
:1037B2003C363D363E363906D8A03A062AAEE4EF0C
:1037C2001BF0E6EF1BF0CAEF1BF0000E406E3EAEA0
:1037D200EDEF1BF0EFEF1BF013EF1CF0FF0E3B14AD
:1037E200306EFF0E3C14316EFF0E3D14326E7F0EB2
:1037F2003E14336E3050311032103310D8B404EF0F
:103802001CF006EF1CF00AEF1CF0010E406E13EFE5
:103812001CF028A00FEF1CF011EF1CF013EF1CF0AE
:1038220006EF1CF04050D8B419EF1CF01BEF1CF04F
:103832003FEF1CF0010E2826000E29222A222B22FD
:103842002BA026EF1CF028EF1CF03FEF1CF028C540
:1038520030F529C531F52AC532F52BC533F5333498
:10386200333232323132303230C528F531C529F5A2
:1038720032C52AF533C52BF5394A3A2A3ABE4AEF00
:103882001CF03A5008E13928D8A04AEF1CF04CEF5E
:103892001CF057EF1CF0000E3A6E3968000E286ECD
:1038A200000E296E000E2A6E000E2B6E3ABE64EFD9
:1038B2001CF03A5006E13904D8B062EF1CF064EF14
:1038C2001CF072EF1CF0000E3A6E000E396E000E04
:1038D200286E000E296E000E2A6E000E2B6E000E50
:1038E200386E39C53FF53FA079EF1CF07BEF1CF035
:1038F2007EEF1CF02A8E7FEF1CF02A9ED8903F307C
:103902002B6E35EF1BF01200096E0950D8B48CEF04
:103912001CF08EEF1CF0B0EF1CF004BE95EF1CF013
:1039220093EF1CF0B0EF1CF001C505F502C506F5DA
:1039320003C507F504C508F5051E061E071E081E69
:10394200052A000E06220722082205C50BF506C528
:103952000CF507C50DF508C50EF5B8EF1CF001C54D
:103962000BF502C50CF503C50DF504C50EF50150A6
:10397200021003100410D8A4C1EF1CF0C3EF1CF016
:10398200CDEF1CF0000E016E000E026E000E036EF3
:10399200000E046E5EEF1DF0960E0A6ED7EF1CF05D
:1039A2000A2AD8900E320D320C320B32000E0B1452
:1039B200056E000E0C14066E000E0D14076EFE0E40
:1039C2000E14086E0550061007100810D8A4ECEF6C
:1039D2001CF0EEEF1CF0D1EF1CF0FCEF1CF00A2AF9
:1039E200010E0B26000E0C220D220E22D8900E3252
:1039F2000D320C320B32000E0B14056E000E0C143D
:103A0200066E000E0D14076EFF0E0E14086E0550A2
:103A1200061007100810D8A411EF1DF013EF1DF0C7
:103A2200F0EF1CF01BEF1DF00A06D8900B360C3697
:103A32000D360E360DBE20EF1DF022EF1DF02AEFDF
:103A42001DF0020E0A6028EF1DF02AEF1DF015EF9F
:103A52001DF00AB02FEF1DF031EF1DF032EF1DF017
:103A62000D9ED8900A320AC505F5066A076A086AE9
:103A720005C508F5076A066A056A05500B12065065
:103A82000C1207500D1208500E120950D8B44CEF08
:103A92001DF04EEF1DF056EF1DF004BE55EF1DF068
:103AA20053EF1DF056EF1DF00E8E0BC501F50CC540
:103AB20002F50DC503F50EC504F512000DC506F598
:103AC2000EC507F5270E096E100E086ED9EC1FF011
:103AD2000650126E270E046E100E036E0DC501F510
:103AE2000EC502F5B9EC20F001C506F502C507F5D1
:103AF200030E096EE80E086ED9EC1FF00650136E25
:103B0200030E046EE80E036E0DC501F50EC502F537
:103B1200B9EC20F001C506F502C507F5000E096EE5
:103B2200640E086ED9EC1FF00650146E000E046E7F
:103B3200640E036E0DC501F50EC502F5B9EC20F059
:103B420001C506F502C507F5000E096E0A0E086EDC
:103B5200D9EC1FF00650156E0DC501F50EC502F524
:103B6200000E046E0A0E036EB9EC20F00150166EC0
:103B720001EF1EF01650300FBAEC21F022EF1EF0CA
:103B82001550300FBAEC21F01650300FBAEC21F07C
:103B920022EF1EF01450300FBAEC21F01550300F06
:103BA200BAEC21F01650300FBAEC21F022EF1EF0E1
:103BB2001350300FBAEC21F01450300FBAEC21F050
:103BC2001550300FBAEC21F01650300FBAEC21F03C
:103BD20022EF1EF01250300FBAEC21F01350300FCA
:103BE200BAEC21F01450300FBAEC21F01550300F1E
:103BF200BAEC21F01650300FBAEC21F022EF1EF091
:103C02000F50106E116A1150000AD8B40BEF1EF05B
:103C120022EF1EF01050010AD8B4BBEF1DF0030AC8
:103C2200D8B4C1EF1DF0010AD8B4CBEF1DF0070ADA
:103C3200D8B4D9EF1DF0010AD8B4EBEF1DF022EF92
:103C42001EF01200433444344A6E4A50D8A42CEF7A
:103C52001EF02EEF1EF038EF1EF0000E416E000E29
:103C6200426E000E436E000E446EA5EF1EF041C57B
:103C720045F542C546F543C547F544C548F5200E0E
:103C820048EF1EF0D8904832473246324532E82E8D
:103C920043EF1EF04550496E438EFF0E4116FF0E54
:103CA2004216FF0E4316000E4416960E4A5E4ABE98
:103CB2005FEF1EF05DEF1EF075EF1EF04A50800AB6
:103CC200970FD8B067EF1EF069EF1EF06BEF1EF092
:103CD2002EEF1EF0D89044324332423241324A3EF5
:103CE2006BEF1EF08DEF1EF01F0E4A647BEF1EF08D
:103CF2007DEF1EF085EF1EF02EEF1EF0D8904136BC
:103D02004236433644364A064A50D8A48BEF1EF058
:103D12008DEF1EF07FEF1EF04950D8B493EF1EF0E6
:103D220095EF1EF09DEF1EF0441E431E421E416C95
:103D3200000E42224322442241C541F542C542F5CA
:103D420043C543F544C544F51200000E0C6E0ABE8D
:103D5200AFEF1EF0ADEF1EF0B5EF1EF0096C0A1EBC
:103D6200D8B00A2A010E0C6E08BEBCEF1EF0BAEFE4
:103D72001EF0C2EF1EF0076C081ED8B0082A010E12
:103D82000C1A000E0E6E000E0D6E09500A10D8B4F9
:103D9200CDEF1EF0CFEF1EF0F7EF1EF0010E0B6E0F
:103DA200D7EF1EF0D89009360A360B2A0AAEDCEF9E
:103DB2001EF0DEEF1EF0D3EF1EF0D8900D360E3659
:103DC2000950075C0A500858D8A0EAEF1EF0ECEF41
:103DD2001EF0F1EF1EF00950075E0A50085A0D80DE
:103DE200D8900A3209320B2EDEEF1EF00C50D8B4F6
:103DF200FDEF1EF0FFEF1EF003EF1FF00D6C0E1E25
:103E0200D8B00E2A0DC507F50EC508F51200000E32
:103E1200066E02BE11EF1FF00FEF1FF017EF1FF03B
:103E2200016C021ED8B0022A010E066E04BE1EEFFD
:103E32001FF01CEF1FF022EF1FF0036C041ED8B01E
:103E4200042A03500410D8B429EF1FF02BEF1FF0FF
:103E52004FEF1FF0010E056E33EF1FF0D8900336BF
:103E62000436052A04AE38EF1FF03AEF1FF02FEFA9
:103E72001FF00350015C04500258D8A043EF1FF01A
:103E820045EF1FF049EF1FF00350015E0450025A44
:103E9200D89004320332052E3AEF1FF00650D8B400
:103EA20055EF1FF057EF1FF05BEF1FF0016C021E82
:103EB200D8B0022A01C501F502C502F51200056E4D
:103EC2000504D8A467EF1FF069EF1FF06FEF1FF032
:103ED2000450800FA0EC21F09CEF1FF0020E051899
:103EE200D8A476EF1FF078EF1FF07EEF1FF004509A
:103EF200C00FA0EC21F09CEF1FF0030E0518D8A410
:103F020085EF1FF087EF1FF08DEF1FF00450940F25
:103F1200A0EC21F09CEF1FF0040E0518D8A494EF3A
:103F22001FF096EF1FF09CEF1FF00450D40FA0EC8F
:083F320021F09CEF1FF01200CA
:103F3C00B19C630E05016B19D8A4A7EF1FF0A9EF74
:103F4C001FF0D7EF1FF0000E6B6F3B0E6C19D8A44F
:103F5C00B2EF1FF0B4EF1FF0D4EF1FF0000E6C6F38
:103F6C003B0E5E18D8A4BDEF1FF0BFEF1FF0D1EFD2
:103F7C001FF0000E5E6E170E5F18D8A4C8EF1FF06E
:103F8C00CAEF1FF0CEEF1FF0000E5F6ED8EF1FF0E0
:103F9C005F2AD8EF1FF05E2AD8EF1FF06C2BD8EFFA
:103FAC001FF06B2B1100000E0B6E000E0A6E0850EA
:103FBC000910D8B4E4EF1FF0E6EF1FF00EEF20F07D
:103FCC00010E0C6EEEEF1FF0D890083609360C2A55
:103FDC0009AEF3EF1FF0F5EF1FF0EAEF1FF0D890EA
:103FEC000A360B360850065C09500758D8A001EF6A
:103FFC0020F003EF20F008EF20F00850065E095087
:10400C00075A0A80D890093208320C2EF5EF1FF0AF
:10401C000AC506F50BC507F51200600E0001AD6F61
:10402C00060EB16F400EB36F000EC86EFE0E04018B
:10403C00106FC768000E086F1F0E096FCA90209191
:10404C00C6680069000EC96E000E186FCB902891DF
:10405C00CB822893010E0301216F330E1E6F810E4C
:10406C00426F270E416F100E406FA18CD68E9F8031
:10407C00A480A880D690D692D694F351F30B040961
:10408C00F36FF389000EEC6FF38F1200F80EC96E0C
:10409C00C190C182C184A00E00D0E82EFDD7D1C43E
:1040AC0001F5C194A00E00D0E82EFDD7C184A00E5E
:1040BC0000D0E82EFDD7C1940150800B016E7BEF30
:1040CC0020F0C184A00E00D0E82EFDD7D1C401F59C
:1040DC00C194A00E00D0E82EFDD7C184A00E00D054
:1040EC00E82EFDD7C19462EF20F0800E0118D8B4F1
:1040FC0082EF20F084EF20F067EF20F01200880EA2
:10410C00F66E440EF76E000EF86E01EE60F110EED6
:10411C000DF00900F5C4EEF4E550E150FAE1B80EEB
:10412C00F66E440EF76E000EF86E01EE5CF110EEBA
:10413C0004F00900F5C4EEF4E550E150FAE101EEAB
:10414C006DF10C0EEE6AE806FDE15B6A5A6A596A7B
:10415C00586A0401080E5D6F000E5E6F000E5F6FF3
:10416C00000199EF12F003500410D8B4C0EF20F006
:10417C00C2EF20F0E6EF20F0010E056ECAEF20F042
:10418C00D89003360436052A04AECFEF20F0D1EFD9
:10419C0020F0C6EF20F00350015C04500258D8A068
:1041AC00DAEF20F0DCEF20F0E0EF20F00350015EBE
:1041BC000450025AD89004320332052ED1EF20F06D
:1041CC0001C501F502C502F512000F6E0FC507F50A
:1041DC00086A000E0A6E640E096EA6EC1EF00750FB
:1041EC000501786F000E046E640E036E0FC501F5A9
:1041FC00026A08EC1FF001C507F502C508F5000EB0
:10420C000A6E0A0E096EA6EC1EF007505B6E0FC507
:10421C0001F5026A000E046E0A0E036E08EC1FF024
:10422C0001505A6E1200C190C192300E36EC22F041
:10423C00150E046EC60EE82EFED7042EFCD700D049
:10424C00300E36EC22F0A00E00D0E82EFDD7300E4A
:10425C0036EC22F0200E36EC22F0010EA0EC21F010
:10426C00280EA0EC21F00F0EA0EC21F0060EA0EC15
:10427C0021F0010EA0EC21F0120004C501F584EC34
:10428C0021F00150066E000E076E5BEF21F004501A
:10429C000724056E05C5F6F4250EF76E000EF86EB4
:1042AC000800F550BAEC21F0072A0650075CD8A09C
:1042BC0062EF21F064EF21F04DEF21F01200000EBF
:1042CC00C96E000E0401186F9C0E056ED70EE82EF9
:1042DC00FED7052EFCD7000019EC21F09C0E056EC4
:1042EC00D70EE82EFED7052EFCD7000055EC22F099
:1042FC0051EC22F0010ED4EC21F0120001C503F5B3
:10430C0089EF21F0012A01C5F6F4250EF76E000E97
:10431C00F86E0800F5500009D8A497EF21F099EF3A
:10432C0021F088EF21F00350015C016E026A01BE9E
:10433C0002061200026EC1904CEC20F0000EC96E09
:10434C00A00E00D0E82EFDD7C192C194C1900250AE
:10435C00F00B036E035036EC22F00238F00B036EB8
:10436C00035036EC22F01200026EC1804CEC20F0AF
:10437C00000EC96EA00E00D0E82EFDD7C192C194DC
:10438C00C1800250F00B036E035036EC22F0023861
:10439C00F00B036E035036EC22F01200046E045046
:1043AC00D8A4DBEF21F0DDEF21F0E0EF21F00E0ED1
:1043BC00A0EC21F00404D8A4E6EF21F0E8EF21F002
:1043CC00EBEF21F00C0EA0EC21F01200016ECB9063
:1043DC0004012891CB822893000E0201AF6F01C516
:1043EC00AEF2300EAB6F800EAC6F000EAD6F200EC8
:1043FC00296F290E726F12000301F381F3B109EFDB
:10440C0022F00BEF22F004EF22F0EB51046E036A62
:0E441C00EA510324016E000E0420026E12000D
:10442C00AF90170E5F18D8A41EEF22F020EF22F0E9
:10443C0024EF22F0000E5F6E25EF22F05F2A1100B0
:10444C00B4903B0E5E18D8A42EEF22F030EF22F081
:10445C0034EF22F0000E5E6E35EF22F05E2A110072
:10446C00016E0F0EC116F00E01160150C112C1845F
:10447C00A00E00D0E82EFDD7C194120001383016E2
:09448C0015383016153830380CD3
:10449800B890000E05016C6F1100020EA0EC21F01F
:1044A8001200010EA0EC21F012000201A15112002D
:0444B80016150311C1
:020000040030CA
:08000000FCFF3DDF9FFFFFFF45
:01000900FFF7
:00000001FF
